{
  "_format": "hh3-artifact-1",
  "contractName": "Token",
  "sourceName": "contracts/Token.sol",
  "abi": [
    {
      "inputs": [
        {
          "internalType": "string",
          "name": "name",
          "type": "string"
        },
        {
          "internalType": "string",
          "name": "symbol",
          "type": "string"
        }
      ],
      "stateMutability": "nonpayable",
      "type": "constructor"
    },
    {
      "inputs": [
        {
          "internalType": "address",
          "name": "spender",
          "type": "address"
        },
        {
          "internalType": "uint256",
          "name": "allowance",
          "type": "uint256"
        },
        {
          "internalType": "uint256",
          "name": "needed",
          "type": "uint256"
        }
      ],
      "name": "ERC20InsufficientAllowance",
      "type": "error"
    },
    {
      "inputs": [
        {
          "internalType": "address",
          "name": "sender",
          "type": "address"
        },
        {
          "internalType": "uint256",
          "name": "balance",
          "type": "uint256"
        },
        {
          "internalType": "uint256",
          "name": "needed",
          "type": "uint256"
        }
      ],
      "name": "ERC20InsufficientBalance",
      "type": "error"
    },
    {
      "inputs": [
        {
          "internalType": "address",
          "name": "approver",
          "type": "address"
        }
      ],
      "name": "ERC20InvalidApprover",
      "type": "error"
    },
    {
      "inputs": [
        {
          "internalType": "address",
          "name": "receiver",
          "type": "address"
        }
      ],
      "name": "ERC20InvalidReceiver",
      "type": "error"
    },
    {
      "inputs": [
        {
          "internalType": "address",
          "name": "sender",
          "type": "address"
        }
      ],
      "name": "ERC20InvalidSender",
      "type": "error"
    },
    {
      "inputs": [
        {
          "internalType": "address",
          "name": "spender",
          "type": "address"
        }
      ],
      "name": "ERC20InvalidSpender",
      "type": "error"
    },
    {
      "inputs": [
        {
          "internalType": "address",
          "name": "addr",
          "type": "address"
        }
      ],
      "name": "NotWhitelisted",
      "type": "error"
    },
    {
      "anonymous": false,
      "inputs": [
        {
          "indexed": true,
          "internalType": "address",
          "name": "owner",
          "type": "address"
        },
        {
          "indexed": true,
          "internalType": "address",
          "name": "spender",
          "type": "address"
        },
        {
          "indexed": false,
          "internalType": "uint256",
          "name": "value",
          "type": "uint256"
        }
      ],
      "name": "Approval",
      "type": "event"
    },
    {
      "anonymous": false,
      "inputs": [
        {
          "indexed": true,
          "internalType": "address",
          "name": "from",
          "type": "address"
        },
        {
          "indexed": true,
          "internalType": "address",
          "name": "to",
          "type": "address"
        },
        {
          "indexed": false,
          "internalType": "uint256",
          "name": "value",
          "type": "uint256"
        }
      ],
      "name": "Transfer",
      "type": "event"
    },
    {
      "anonymous": false,
      "inputs": [
        {
          "indexed": false,
          "internalType": "address",
          "name": "from",
          "type": "address"
        },
        {
          "indexed": false,
          "internalType": "address",
          "name": "to",
          "type": "address"
        },
        {
          "indexed": false,
          "internalType": "uint256",
          "name": "amount",
          "type": "uint256"
        }
      ],
      "name": "trasferSuccess",
      "type": "event"
    },
    {
      "inputs": [
        {
          "internalType": "address",
          "name": "owner",
          "type": "address"
        },
        {
          "internalType": "address",
          "name": "spender",
          "type": "address"
        }
      ],
      "name": "allowance",
      "outputs": [
        {
          "internalType": "uint256",
          "name": "",
          "type": "uint256"
        }
      ],
      "stateMutability": "view",
      "type": "function"
    },
    {
      "inputs": [
        {
          "internalType": "address",
          "name": "spender",
          "type": "address"
        },
        {
          "internalType": "uint256",
          "name": "value",
          "type": "uint256"
        }
      ],
      "name": "approve",
      "outputs": [
        {
          "internalType": "bool",
          "name": "",
          "type": "bool"
        }
      ],
      "stateMutability": "nonpayable",
      "type": "function"
    },
    {
      "inputs": [
        {
          "internalType": "address",
          "name": "account",
          "type": "address"
        }
      ],
      "name": "balanceOf",
      "outputs": [
        {
          "internalType": "uint256",
          "name": "",
          "type": "uint256"
        }
      ],
      "stateMutability": "view",
      "type": "function"
    },
    {
      "inputs": [],
      "name": "decimals",
      "outputs": [
        {
          "internalType": "uint8",
          "name": "",
          "type": "uint8"
        }
      ],
      "stateMutability": "view",
      "type": "function"
    },
    {
      "inputs": [],
      "name": "name",
      "outputs": [
        {
          "internalType": "string",
          "name": "",
          "type": "string"
        }
      ],
      "stateMutability": "view",
      "type": "function"
    },
    {
      "inputs": [],
      "name": "owner",
      "outputs": [
        {
          "internalType": "address",
          "name": "",
          "type": "address"
        }
      ],
      "stateMutability": "view",
      "type": "function"
    },
    {
      "inputs": [],
      "name": "symbol",
      "outputs": [
        {
          "internalType": "string",
          "name": "",
          "type": "string"
        }
      ],
      "stateMutability": "view",
      "type": "function"
    },
    {
      "inputs": [],
      "name": "totalSupply",
      "outputs": [
        {
          "internalType": "uint256",
          "name": "",
          "type": "uint256"
        }
      ],
      "stateMutability": "view",
      "type": "function"
    },
    {
      "inputs": [
        {
          "internalType": "address",
          "name": "to",
          "type": "address"
        },
        {
          "internalType": "uint256",
          "name": "amount",
          "type": "uint256"
        }
      ],
      "name": "transfer",
      "outputs": [
        {
          "internalType": "bool",
          "name": "",
          "type": "bool"
        }
      ],
      "stateMutability": "nonpayable",
      "type": "function"
    },
    {
      "inputs": [
        {
          "internalType": "address",
          "name": "from",
          "type": "address"
        },
        {
          "internalType": "address",
          "name": "to",
          "type": "address"
        },
        {
          "internalType": "uint256",
          "name": "amount",
          "type": "uint256"
        }
      ],
      "name": "transferFrom",
      "outputs": [
        {
          "internalType": "bool",
          "name": "",
          "type": "bool"
        }
      ],
      "stateMutability": "nonpayable",
      "type": "function"
    },
    {
      "inputs": [
        {
          "internalType": "address",
          "name": "_address",
          "type": "address"
        }
      ],
      "name": "whitelist",
      "outputs": [],
      "stateMutability": "nonpayable",
      "type": "function"
    },
    {
      "inputs": [
        {
          "internalType": "address",
          "name": "",
          "type": "address"
        }
      ],
      "name": "whitelisted",
      "outputs": [
        {
          "internalType": "bool",
          "name": "",
          "type": "bool"
        }
      ],
      "stateMutability": "view",
      "type": "function"
    }
  ],
  "bytecode": "0x608060405234801561000f575f5ffd5b50604051610e24380380610e2483398101604081905261002e91610298565b8181600361003c8382610381565b5060046100498282610381565b50505061007a3361005e61009360201b60201c565b61006990600a610534565b61007590612710610549565b610098565b5050600580546001600160a01b03191633179055610573565b601290565b6001600160a01b0382166100c65760405163ec442f0560e01b81525f60048201526024015b60405180910390fd5b6100d15f83836100d5565b5050565b6001600160a01b0383166100ff578060025f8282546100f49190610560565b9091555061016f9050565b6001600160a01b0383165f90815260208190526040902054818110156101515760405163391434e360e21b81526001600160a01b038516600482015260248101829052604481018390526064016100bd565b6001600160a01b0384165f9081526020819052604090209082900390555b6001600160a01b03821661018b576002805482900390556101a9565b6001600160a01b0382165f9081526020819052604090208054820190555b816001600160a01b0316836001600160a01b03167fddf252ad1be2c89b69c2b068fc378daa952ba7f163c4a11628f55a4df523b3ef836040516101ee91815260200190565b60405180910390a3505050565b634e487b7160e01b5f52604160045260245ffd5b5f82601f83011261021e575f5ffd5b81516001600160401b03811115610237576102376101fb565b604051601f8201601f19908116603f011681016001600160401b0381118282101715610265576102656101fb565b60405281815283820160200185101561027c575f5ffd5b8160208501602083015e5f918101602001919091529392505050565b5f5f604083850312156102a9575f5ffd5b82516001600160401b038111156102be575f5ffd5b6102ca8582860161020f565b602085015190935090506001600160401b038111156102e7575f5ffd5b6102f38582860161020f565b9150509250929050565b600181811c9082168061031157607f821691505b60208210810361032f57634e487b7160e01b5f52602260045260245ffd5b50919050565b601f82111561037c57805f5260205f20601f840160051c8101602085101561035a5750805b601f840160051c820191505b81811015610379575f8155600101610366565b50505b505050565b81516001600160401b0381111561039a5761039a6101fb565b6103ae816103a884546102fd565b84610335565b6020601f8211600181146103e0575f83156103c95750848201515b5f19600385901b1c1916600184901b178455610379565b5f84815260208120601f198516915b8281101561040f57878501518255602094850194600190920191016103ef565b508482101561042c57868401515f19600387901b60f8161c191681555b50505050600190811b01905550565b634e487b7160e01b5f52601160045260245ffd5b6001815b600184111561048a5780850481111561046e5761046e61043b565b600184161561047c57908102905b60019390931c928002610453565b935093915050565b5f826104a05750600161052e565b816104ac57505f61052e565b81600181146104c257600281146104cc576104e8565b600191505061052e565b60ff8411156104dd576104dd61043b565b50506001821b61052e565b5060208310610133831016604e8410600b841016171561050b575081810a61052e565b6105175f19848461044f565b805f190482111561052a5761052a61043b565b0290505b92915050565b5f61054260ff841683610492565b9392505050565b808202811582820484141761052e5761052e61043b565b8082018082111561052e5761052e61043b565b6108a4806105805f395ff3fe608060405234801561000f575f5ffd5b50600436106100b1575f3560e01c80638da5cb5b1161006e5780638da5cb5b1461015257806395d89b411461017d5780639b19251a14610185578063a9059cbb1461019a578063d936547e146101ad578063dd62ed3e146101cf575f5ffd5b806306fdde03146100b5578063095ea7b3146100d357806318160ddd146100f657806323b872dd14610108578063313ce5671461011b57806370a082311461012a575b5f5ffd5b6100bd610207565b6040516100ca9190610714565b60405180910390f35b6100e66100e1366004610764565b610297565b60405190151581526020016100ca565b6002545b6040519081526020016100ca565b6100e661011636600461078c565b6102b0565b604051601281526020016100ca565b6100fa6101383660046107c6565b6001600160a01b03165f9081526020819052604090205490565b600554610165906001600160a01b031681565b6040516001600160a01b0390911681526020016100ca565b6100bd610374565b6101986101933660046107c6565b610383565b005b6100e66101a8366004610764565b6103f9565b6100e66101bb3660046107c6565b60066020525f908152604090205460ff1681565b6100fa6101dd3660046107e6565b6001600160a01b039182165f90815260016020908152604080832093909416825291909152205490565b60606003805461021690610817565b80601f016020809104026020016040519081016040528092919081815260200182805461024290610817565b801561028d5780601f106102645761010080835404028352916020019161028d565b820191905f5260205f20905b81548152906001019060200180831161027057829003601f168201915b5050505050905090565b5f336102a48185856104ac565b60019150505b92915050565b6001600160a01b0383165f9081526006602052604081205460ff1615806102ef57506001600160a01b0383165f9081526006602052604090205460ff16155b1561031457604051636f8bf18b60e11b81523360048201526024015b60405180910390fd5b61031f8484846104be565b604080516001600160a01b038087168252851660208201529081018390527f222e54812758e8363224ede336cc36c45bd93f17df2f05ea7f69a7d1b3b2ef3b9060600160405180910390a15060019392505050565b60606004805461021690610817565b6005546001600160a01b031633146103d65760405162461bcd60e51b81526020600482015260166024820152752737ba103a34329031b7b73a3930b1ba1037bbb732b960511b604482015260640161030b565b6001600160a01b03165f908152600660205260409020805460ff19166001179055565b335f9081526006602052604081205460ff16158061042f57506001600160a01b0383165f9081526006602052604090205460ff16155b1561044f57604051636f8bf18b60e11b815233600482015260240161030b565b61045a3384846104be565b604080513381526001600160a01b03851660208201529081018390527f222e54812758e8363224ede336cc36c45bd93f17df2f05ea7f69a7d1b3b2ef3b9060600160405180910390a150600192915050565b6104b9838383600161051b565b505050565b6001600160a01b0383166104e757604051634b637e8f60e11b81525f600482015260240161030b565b6001600160a01b0382166105105760405163ec442f0560e01b81525f600482015260240161030b565b6104b98383836105ee565b6001600160a01b0384166105445760405163e602df0560e01b81525f600482015260240161030b565b6001600160a01b03831661056d57604051634a1406b160e11b81525f600482015260240161030b565b6001600160a01b038085165f90815260016020908152604080832093871683529290522082905580156105e857826001600160a01b0316846001600160a01b03167f8c5be1e5ebec7d5bd14f71427d1e84f3dd0314c0f7b2291e5b200ac8c7c3b925846040516105df91815260200190565b60405180910390a35b50505050565b6001600160a01b038316610618578060025f82825461060d919061084f565b909155506106889050565b6001600160a01b0383165f908152602081905260409020548181101561066a5760405163391434e360e21b81526001600160a01b0385166004820152602481018290526044810183905260640161030b565b6001600160a01b0384165f9081526020819052604090209082900390555b6001600160a01b0382166106a4576002805482900390556106c2565b6001600160a01b0382165f9081526020819052604090208054820190555b816001600160a01b0316836001600160a01b03167fddf252ad1be2c89b69c2b068fc378daa952ba7f163c4a11628f55a4df523b3ef8360405161070791815260200190565b60405180910390a3505050565b602081525f82518060208401528060208501604085015e5f604082850101526040601f19601f83011684010191505092915050565b80356001600160a01b038116811461075f575f5ffd5b919050565b5f5f60408385031215610775575f5ffd5b61077e83610749565b946020939093013593505050565b5f5f5f6060848603121561079e575f5ffd5b6107a784610749565b92506107b560208501610749565b929592945050506040919091013590565b5f602082840312156107d6575f5ffd5b6107df82610749565b9392505050565b5f5f604083850312156107f7575f5ffd5b61080083610749565b915061080e60208401610749565b90509250929050565b600181811c9082168061082b57607f821691505b60208210810361084957634e487b7160e01b5f52602260045260245ffd5b50919050565b808201808211156102aa57634e487b7160e01b5f52601160045260245ffdfea264697066735822122065abaa1b56afec6f0003a95af3806ab1148e0037a5066d594159e9c85659a9f664736f6c634300081c0033",
  "linkReferences": {},
  "deployedLinkReferences": {},
  "immutableReferences": {},
  "inputSourceName": "project/contracts/Token.sol",
  "buildInfoId": "solc-0_8_28-7467a6f96326812c87560763993f8d29b4f630b4"
}