{
  "_format": "hh3-artifact-1",
  "contractName": "Vault",
  "sourceName": "contracts/vault.sol",
  "abi": [
    {
      "inputs": [
        {
          "internalType": "address",
          "name": "_pyusdStablecoin",
          "type": "address"
        }
      ],
      "stateMutability": "nonpayable",
      "type": "constructor"
    },
    {
      "inputs": [
        {
          "internalType": "address",
          "name": "owner",
          "type": "address"
        }
      ],
      "name": "OwnableInvalidOwner",
      "type": "error"
    },
    {
      "inputs": [
        {
          "internalType": "address",
          "name": "account",
          "type": "address"
        }
      ],
      "name": "OwnableUnauthorizedAccount",
      "type": "error"
    },
    {
      "inputs": [],
      "name": "ReentrancyGuardReentrantCall",
      "type": "error"
    },
    {
      "inputs": [
        {
          "internalType": "address",
          "name": "token",
          "type": "address"
        }
      ],
      "name": "SafeERC20FailedOperation",
      "type": "error"
    },
    {
      "anonymous": false,
      "inputs": [
        {
          "indexed": true,
          "internalType": "address",
          "name": "previousOwner",
          "type": "address"
        },
        {
          "indexed": true,
          "internalType": "address",
          "name": "newOwner",
          "type": "address"
        }
      ],
      "name": "OwnershipTransferred",
      "type": "event"
    },
    {
      "anonymous": false,
      "inputs": [
        {
          "indexed": true,
          "internalType": "address",
          "name": "user",
          "type": "address"
        },
        {
          "indexed": true,
          "internalType": "address",
          "name": "token",
          "type": "address"
        },
        {
          "indexed": false,
          "internalType": "uint256",
          "name": "amountBought",
          "type": "uint256"
        },
        {
          "indexed": false,
          "internalType": "uint256",
          "name": "pyusdCost",
          "type": "uint256"
        }
      ],
      "name": "StockBought",
      "type": "event"
    },
    {
      "anonymous": false,
      "inputs": [
        {
          "indexed": true,
          "internalType": "address",
          "name": "token",
          "type": "address"
        },
        {
          "indexed": false,
          "internalType": "string",
          "name": "name",
          "type": "string"
        },
        {
          "indexed": false,
          "internalType": "uint256",
          "name": "initialSupply",
          "type": "uint256"
        },
        {
          "indexed": false,
          "internalType": "uint256",
          "name": "pricingFactor",
          "type": "uint256"
        }
      ],
      "name": "StockListed",
      "type": "event"
    },
    {
      "anonymous": false,
      "inputs": [
        {
          "indexed": true,
          "internalType": "address",
          "name": "user",
          "type": "address"
        },
        {
          "indexed": true,
          "internalType": "address",
          "name": "token",
          "type": "address"
        },
        {
          "indexed": false,
          "internalType": "uint256",
          "name": "amountSold",
          "type": "uint256"
        },
        {
          "indexed": false,
          "internalType": "uint256",
          "name": "pyusdReceived",
          "type": "uint256"
        }
      ],
      "name": "StockSold",
      "type": "event"
    },
    {
      "inputs": [],
      "name": "PYUSD_DECIMALS",
      "outputs": [
        {
          "internalType": "uint8",
          "name": "",
          "type": "uint8"
        }
      ],
      "stateMutability": "view",
      "type": "function"
    },
    {
      "inputs": [],
      "name": "STOCK_DECIMALS",
      "outputs": [
        {
          "internalType": "uint8",
          "name": "",
          "type": "uint8"
        }
      ],
      "stateMutability": "view",
      "type": "function"
    },
    {
      "inputs": [
        {
          "internalType": "address",
          "name": "_token",
          "type": "address"
        },
        {
          "internalType": "uint256",
          "name": "_amountInWholeTokens",
          "type": "uint256"
        }
      ],
      "name": "buyStock",
      "outputs": [],
      "stateMutability": "nonpayable",
      "type": "function"
    },
    {
      "inputs": [
        {
          "internalType": "address",
          "name": "_token",
          "type": "address"
        }
      ],
      "name": "getPrice",
      "outputs": [
        {
          "internalType": "uint256",
          "name": "price",
          "type": "uint256"
        }
      ],
      "stateMutability": "view",
      "type": "function"
    },
    {
      "inputs": [
        {
          "internalType": "address",
          "name": "_token",
          "type": "address"
        },
        {
          "internalType": "string",
          "name": "_name",
          "type": "string"
        },
        {
          "internalType": "uint256",
          "name": "_initialSupplyInWholeTokens",
          "type": "uint256"
        },
        {
          "internalType": "uint256",
          "name": "_priceInPyusd",
          "type": "uint256"
        }
      ],
      "name": "listAndDepositInitialStock",
      "outputs": [],
      "stateMutability": "nonpayable",
      "type": "function"
    },
    {
      "inputs": [],
      "name": "owner",
      "outputs": [
        {
          "internalType": "address",
          "name": "",
          "type": "address"
        }
      ],
      "stateMutability": "view",
      "type": "function"
    },
    {
      "inputs": [],
      "name": "pyusdStablecoin",
      "outputs": [
        {
          "internalType": "contract IERC20",
          "name": "",
          "type": "address"
        }
      ],
      "stateMutability": "view",
      "type": "function"
    },
    {
      "inputs": [],
      "name": "renounceOwnership",
      "outputs": [],
      "stateMutability": "nonpayable",
      "type": "function"
    },
    {
      "inputs": [
        {
          "internalType": "address",
          "name": "_token",
          "type": "address"
        },
        {
          "internalType": "uint256",
          "name": "_amountInWholeTokens",
          "type": "uint256"
        }
      ],
      "name": "sellStock",
      "outputs": [],
      "stateMutability": "nonpayable",
      "type": "function"
    },
    {
      "inputs": [
        {
          "internalType": "address",
          "name": "",
          "type": "address"
        }
      ],
      "name": "stockList",
      "outputs": [
        {
          "internalType": "string",
          "name": "name",
          "type": "string"
        },
        {
          "internalType": "uint256",
          "name": "pricingFactor",
          "type": "uint256"
        },
        {
          "internalType": "uint256",
          "name": "currentSupply",
          "type": "uint256"
        },
        {
          "internalType": "bool",
          "name": "isSupported",
          "type": "bool"
        }
      ],
      "stateMutability": "view",
      "type": "function"
    },
    {
      "inputs": [
        {
          "internalType": "address",
          "name": "newOwner",
          "type": "address"
        }
      ],
      "name": "transferOwnership",
      "outputs": [],
      "stateMutability": "nonpayable",
      "type": "function"
    },
    {
      "inputs": [
        {
          "internalType": "address",
          "name": "",
          "type": "address"
        },
        {
          "internalType": "address",
          "name": "",
          "type": "address"
        }
      ],
      "name": "userStockBalances",
      "outputs": [
        {
          "internalType": "uint256",
          "name": "",
          "type": "uint256"
        }
      ],
      "stateMutability": "view",
      "type": "function"
    },
    {
      "inputs": [
        {
          "internalType": "uint256",
          "name": "_amountInWholeTokens",
          "type": "uint256"
        }
      ],
      "name": "withdrawPYUSD",
      "outputs": [],
      "stateMutability": "nonpayable",
      "type": "function"
    }
  ],
  "bytecode": "0x608060405234801561000f575f5ffd5b5060405161196738038061196783398101604081905261002e9161012c565b338061005457604051631e4fbdf760e01b81525f60048201526024015b60405180910390fd5b61005d816100dd565b50600180556001600160a01b0381166100b85760405162461bcd60e51b815260206004820152601560248201527f50595553442061646472657373206973207a65726f0000000000000000000000604482015260640161004b565b600280546001600160a01b0319166001600160a01b0392909216919091179055610159565b5f80546001600160a01b038381166001600160a01b0319831681178455604051919092169283917f8be0079c531659141344cd1fd0a4f28419497f9722a3daafe3b4186f6b6457e09190a35050565b5f6020828403121561013c575f5ffd5b81516001600160a01b0381168114610152575f5ffd5b9392505050565b611801806101665f395ff3fe608060405234801561000f575f5ffd5b50600436106100cb575f3560e01c80639bbb7e9b11610088578063db34afac11610063578063db34afac14610191578063de67f138146101b4578063ea5ca2b8146101c7578063f2fde38b146101f1575f5ffd5b80639bbb7e9b14610163578063cf44da6d14610176578063d621b7e114610189575f5ffd5b80630571ebb9146100cf57806338f16987146100e457806341976e09146100f7578063715018a61461011d57806377f2a2a5146101255780638da5cb5b1461013f575b5f5ffd5b6100e26100dd36600461127e565b610204565b005b6100e26100f23660046112b0565b610334565b61010a6101053660046112d8565b61077e565b6040519081526020015b60405180910390f35b6100e261083e565b61012d601281565b60405160ff9091168152602001610114565b5f546001600160a01b03165b6040516001600160a01b039091168152602001610114565b6100e2610171366004611305565b610851565b6100e26101843660046112b0565b610bce565b61012d600681565b6101a461019f3660046112d8565b610fe4565b6040516101149493929190611406565b60025461014b906001600160a01b031681565b61010a6101d5366004611436565b600460209081525f928352604080842090915290825290205481565b6100e26101ff3660046112d8565b611096565b61020c6110d0565b6102146110fc565b5f811161023c5760405162461bcd60e51b815260040161023390611467565b60405180910390fd5b5f6102496006600a61158c565b610253908361159a565b6002546040516370a0823160e01b815230600482015291925082916001600160a01b03909116906370a0823190602401602060405180830381865afa15801561029e573d5f5f3e3d5ffd5b505050506040513d601f19601f820116820180604052508101906102c291906115b1565b10156103105760405162461bcd60e51b815260206004820152601b60248201527f496e73756666696369656e7420505955534420696e207661756c7400000000006044820152606401610233565b600254610327906001600160a01b03163383611126565b5061033160018055565b50565b61033c6110fc565b6001600160a01b0382165f9081526003602081905260409091209081015460ff166103795760405162461bcd60e51b8152600401610233906115c8565b6001600160a01b03831661039f5760405162461bcd60e51b8152600401610233906115f5565b5f82116103be5760405162461bcd60e51b815260040161023390611467565b5f6103cb6012600a61158c565b6103d5908461159a565b9050808260020154101561042b5760405162461bcd60e51b815260206004820152601b60248201527f496e73756666696369656e742073746f636b20696e207661756c7400000000006044820152606401610233565b5f6104358561077e565b90505f610442858361159a565b90505f81116104885760405162461bcd60e51b8152602060048201526012602482015271546f74616c20636f7374206973207a65726f60701b6044820152606401610233565b600254604051636eb1769f60e11b815233600482015230602482015282916001600160a01b03169063dd62ed3e90604401602060405180830381865afa1580156104d4573d5f5f3e3d5ffd5b505050506040513d601f19601f820116820180604052508101906104f891906115b1565b10156105465760405162461bcd60e51b815260206004820152601c60248201527f496e73756666696369656e7420505955534420616c6c6f77616e6365000000006044820152606401610233565b6002546040516370a0823160e01b815233600482015282916001600160a01b0316906370a0823190602401602060405180830381865afa15801561058c573d5f5f3e3d5ffd5b505050506040513d601f19601f820116820180604052508101906105b091906115b1565b10156105fe5760405162461bcd60e51b815260206004820152601a60248201527f496e73756666696369656e742050595553442062616c616e63650000000000006044820152606401610233565b6040516370a0823160e01b815230600482015283906001600160a01b038816906370a0823190602401602060405180830381865afa158015610642573d5f5f3e3d5ffd5b505050506040513d601f19601f8201168201806040525081019061066691906115b1565b10156106b45760405162461bcd60e51b815260206004820152601760248201527f5661756c7420746f6b656e2062616c616e6365206c6f770000000000000000006044820152606401610233565b82846002015f8282546106c79190611624565b90915550506001600160a01b0386165f908152600460209081526040808320338452909152812080548592906106fe908490611637565b909155505060025461071b906001600160a01b031633308461118a565b610726863385611126565b60408051848152602081018390526001600160a01b0388169133917f84f79ec885c0e24b5af9422280864e2eb0afaee4d5dcd029f227210ef2f5b8ce91015b60405180910390a35050505061077a60018055565b5050565b6001600160a01b0381165f90815260036020819052604082209081015460ff166107ba5760405162461bcd60e51b8152600401610233906115c8565b5f81600201541161080d5760405162461bcd60e51b815260206004820152601e60248201527f4e6f2073746f636b20617661696c61626c6520666f722070726963696e6700006044820152606401610233565b600281015461081e6012600a61158c565b826001015461082d919061159a565b610837919061164a565b9392505050565b6108466110d0565b61084f5f6111c3565b565b6108596110d0565b6108616110fc565b6001600160a01b0384166108875760405162461bcd60e51b8152600401610233906115f5565b6001600160a01b0384165f908152600360208190526040909120015460ff16156108f35760405162461bcd60e51b815260206004820152601760248201527f53746f636b20616c726561647920737570706f727465640000000000000000006044820152606401610233565b5f82116109425760405162461bcd60e51b815260206004820152601a60248201527f496e697469616c20737570706c79206d757374206265203e20300000000000006044820152606401610233565b5f81116109915760405162461bcd60e51b815260206004820152601960248201527f496e697469616c207072696365206d757374206265203e2030000000000000006044820152606401610233565b5f8351116109d15760405162461bcd60e51b815260206004820152600d60248201526c13985b59481c995c5d5a5c9959609a1b6044820152606401610233565b5f6109de6012600a61158c565b6109e8908461159a565b90505f6109f76006600a61158c565b610a01908461159a565b90505f610a106012600a61158c565b610a1a848461159a565b610a24919061164a565b604080516080810182528881526020808201849052818301879052600160608301526001600160a01b038b165f908152600390915291909120815192935090918190610a7090826116ec565b506020820151600182015560408083015160028301556060909201516003909101805460ff191691151591909117905551636eb1769f60e11b815233600482015230602482015283906001600160a01b0389169063dd62ed3e90604401602060405180830381865afa158015610ae8573d5f5f3e3d5ffd5b505050506040513d601f19601f82011682018060405250810190610b0c91906115b1565b1015610b6b5760405162461bcd60e51b815260206004820152602860248201527f496e73756666696369656e742073746f636b20616c6c6f77616e636520666f726044820152670819195c1bdcda5d60c21b6064820152608401610233565b610b778733308661118a565b866001600160a01b03167f4b7d6c4f9b18b9fa295ec4e2a174d62868fb31873bed14dcb6f067c97795045d878584604051610bb4939291906117a7565b60405180910390a2505050610bc860018055565b50505050565b610bd66110fc565b6001600160a01b0382165f9081526003602081905260409091209081015460ff16610c135760405162461bcd60e51b8152600401610233906115c8565b6001600160a01b038316610c395760405162461bcd60e51b8152600401610233906115f5565b5f8211610c585760405162461bcd60e51b815260040161023390611467565b5f610c656012600a61158c565b610c6f908461159a565b6040516370a0823160e01b815233600482015290915081906001600160a01b038616906370a0823190602401602060405180830381865afa158015610cb6573d5f5f3e3d5ffd5b505050506040513d601f19601f82011682018060405250810190610cda91906115b1565b1015610d285760405162461bcd60e51b815260206004820152601a60248201527f496e73756666696369656e742073746f636b2062616c616e63650000000000006044820152606401610233565b604051636eb1769f60e11b815233600482015230602482015281906001600160a01b0386169063dd62ed3e90604401602060405180830381865afa158015610d72573d5f5f3e3d5ffd5b505050506040513d601f19601f82011682018060405250810190610d9691906115b1565b1015610de45760405162461bcd60e51b815260206004820152601c60248201527f496e73756666696369656e742073746f636b20616c6c6f77616e6365000000006044820152606401610233565b5f610dee8561077e565b90505f610dfb858361159a565b90505f8111610e3d5760405162461bcd60e51b815260206004820152600e60248201526d5061796f7574206973207a65726f60901b6044820152606401610233565b6002546040516370a0823160e01b815230600482015282916001600160a01b0316906370a0823190602401602060405180830381865afa158015610e83573d5f5f3e3d5ffd5b505050506040513d601f19601f82011682018060405250810190610ea791906115b1565b1015610f055760405162461bcd60e51b815260206004820152602760248201527f5661756c742068617320696e73756666696369656e7420505955534420666f72604482015266081c185e5bdd5d60ca1b6064820152608401610233565b82846002015f828254610f189190611637565b90915550506001600160a01b0386165f9081526004602090815260408083203384529091529020548311610f7e576001600160a01b0386165f90815260046020908152604080832033845290915281208054859290610f78908490611624565b90915550505b610f8a8633308661118a565b600254610fa1906001600160a01b03163383611126565b60408051848152602081018390526001600160a01b0388169133917f90ae60af9124e87b731ed267829a979df7425d410f7e4799c982a7e1a2ce525d9101610765565b60036020525f9081526040902080548190610ffe90611669565b80601f016020809104026020016040519081016040528092919081815260200182805461102a90611669565b80156110755780601f1061104c57610100808354040283529160200191611075565b820191905f5260205f20905b81548152906001019060200180831161105857829003601f168201915b50505050600183015460028401546003909401549293909290915060ff1684565b61109e6110d0565b6001600160a01b0381166110c757604051631e4fbdf760e01b81525f6004820152602401610233565b610331816111c3565b5f546001600160a01b0316331461084f5760405163118cdaa760e01b8152336004820152602401610233565b60026001540361111f57604051633ee5aeb560e01b815260040160405180910390fd5b6002600155565b6040516001600160a01b0383811660248301526044820183905261118591859182169063a9059cbb906064015b604051602081830303815290604052915060e01b6020820180516001600160e01b038381831617835250505050611212565b505050565b6040516001600160a01b038481166024830152838116604483015260648201839052610bc89186918216906323b872dd90608401611153565b5f80546001600160a01b038381166001600160a01b0319831681178455604051919092169283917f8be0079c531659141344cd1fd0a4f28419497f9722a3daafe3b4186f6b6457e09190a35050565b5f5f60205f8451602086015f885af180611231576040513d5f823e3d81fd5b50505f513d91508115611248578060011415611255565b6001600160a01b0384163b155b15610bc857604051635274afe760e01b81526001600160a01b0385166004820152602401610233565b5f6020828403121561128e575f5ffd5b5035919050565b80356001600160a01b03811681146112ab575f5ffd5b919050565b5f5f604083850312156112c1575f5ffd5b6112ca83611295565b946020939093013593505050565b5f602082840312156112e8575f5ffd5b61083782611295565b634e487b7160e01b5f52604160045260245ffd5b5f5f5f5f60808587031215611318575f5ffd5b61132185611295565b9350602085013567ffffffffffffffff81111561133c575f5ffd5b8501601f8101871361134c575f5ffd5b803567ffffffffffffffff811115611366576113666112f1565b604051601f8201601f19908116603f0116810167ffffffffffffffff81118282101715611395576113956112f1565b6040528181528282016020018910156113ac575f5ffd5b816020840160208301375f91810160200191909152949794965050505060408301359260600135919050565b5f81518084528060208401602086015e5f602082860101526020601f19601f83011685010191505092915050565b608081525f61141860808301876113d8565b60208301959095525060408101929092521515606090910152919050565b5f5f60408385031215611447575f5ffd5b61145083611295565b915061145e60208401611295565b90509250929050565b6020808252601290820152710416d6f756e74206d757374206265203e20360741b604082015260600190565b634e487b7160e01b5f52601160045260245ffd5b6001815b60018411156114e2578085048111156114c6576114c6611493565b60018416156114d457908102905b60019390931c9280026114ab565b935093915050565b5f826114f857506001611586565b8161150457505f611586565b816001811461151a576002811461152457611540565b6001915050611586565b60ff84111561153557611535611493565b50506001821b611586565b5060208310610133831016604e8410600b8410161715611563575081810a611586565b61156f5f1984846114a7565b805f190482111561158257611582611493565b0290505b92915050565b5f61083760ff8416836114ea565b808202811582820484141761158657611586611493565b5f602082840312156115c1575f5ffd5b5051919050565b60208082526013908201527214dd1bd8dac81b9bdd081cdd5c1c1bdc9d1959606a1b604082015260600190565b602080825260159082015274546f6b656e2061646472657373206973207a65726f60581b604082015260600190565b8181038181111561158657611586611493565b8082018082111561158657611586611493565b5f8261166457634e487b7160e01b5f52601260045260245ffd5b500490565b600181811c9082168061167d57607f821691505b60208210810361169b57634e487b7160e01b5f52602260045260245ffd5b50919050565b601f82111561118557805f5260205f20601f840160051c810160208510156116c65750805b601f840160051c820191505b818110156116e5575f81556001016116d2565b5050505050565b815167ffffffffffffffff811115611706576117066112f1565b61171a816117148454611669565b846116a1565b6020601f82116001811461174c575f83156117355750848201515b5f19600385901b1c1916600184901b1784556116e5565b5f84815260208120601f198516915b8281101561177b578785015182556020948501946001909201910161175b565b508482101561179857868401515f19600387901b60f8161c191681555b50505050600190811b01905550565b606081525f6117b960608301866113d8565b6020830194909452506040015291905056fea26469706673582212208eb33826cf7a167e1b6f393ae2cf202b7424d5cfd6817ee01d20260d2a82bc4964736f6c634300081c0033",
  "linkReferences": {},
  "deployedLinkReferences": {},
  "immutableReferences": {},
  "inputSourceName": "project/contracts/vault.sol",
  "buildInfoId": "solc-0_8_28-66332d8f532c123a08559076891a32ab74374315"
}